S00D0000536E616B652E7372656325
S113000050C000006DC000006BC0000069C000005B
S113001067C0000065C0000063C0000061C000004C
S11300205FC000005DC000005BC0000059C000005C
S113003057C0000099C1000053C0000051C0000027
S11300404FC000004DC000004BC0000049C000007C
S113005047C0000045C0000043C0000041C000008C
S11300603FC000003DC000003BC0000039C000009C
S113007037C0000035C0000033C0000031C00000AC
S11300802FC000002DC000002BC00000CD0A0B0BB8
S11300904F0B830BF80C450D9E0D020E240E2F0EF4
S11300A0450E11241FBECFEFD0E4DEBFCDBF13E059
S11300B0A0E0B1E0E6EBF5E300E00BBF02C007907F
S11300C00D92A83CB107D9F724E0A8ECB3E001C035
S11300D01D92A835B207E1F70E9481130C94D91A36
S11300E08FCFCF93DF9300D000D0CDB7DEB78A8314
S11300F06B834C8319828C81813079F48B81282F16
S113010030E081E090E002C0880F991F2A95E2F761
S1130110982F8A81892B898312C08C81882379F452
S11301208B81282F30E081E090E002C0880F991F76
S11301302A95E2F7982F90958A818923898389816A
S11301400F900F900F900F90DF91CF9108950F9320
S11301501F93CF93DF9300D0CDB7DEB78A83198284
S113016036C005E210E085E290E0FC01808140E0C9
S113017060E0B7DFF80180838A81882364F405E2B4
S113018010E085E290E0FC01808141E062E0A9DFBB
S1130190F80180830BC005E210E085E290E0FC01E9
S11301A0808140E062E09DDFF801808305E210E099
S11301B085E290E0FC01808141E060E092DFF8019B
S11301C0808389818F5F89838A81880F8A8389816B
S11301D0883038F200000F900F90DF91CF911F917B
S11301E00F9108950F931F93CF93DF9300D0CDB752
S11301F0DEB789836A8305E210E085E290E0FC01C2
S1130200808140E061E06DDFF801808389819FDFB8
S11302108A819DDF05E210E085E290E0FC018081A7
S113022041E061E05EDFF801808300000F900F90F1
S1130230DF91CF911F910F910895CF93DF931F9278
S1130240CDB7DEB7198207C089818F5F60E0CADF4E
S113025089818F5F898389818830B0F300000F9092
S1130260DF91CF9108951F93CF93DF93CDB7DEB77E
S113027085E290E0FC01808141E060E032DF182FEC
S113028085E290E0FC01808141E061E02ADF182BE7
S113029085E290E0FC01808141E062E022DF812B75
S11302A0482F50E084E290E024E230E0F90120811C
S11302B0322F242F232BFC01208360E089E092DF7E
S11302C061E08AE08FDF67E08BE08CDF61E08CE047
S11302D089DF60E08FE086DFB0DF0000DF91CF913F
S11302E01F910895CF93DF93CDB7DEB781E890E0F7
S11302F02BE0FC01208388E890E02DE730E0FC014E
S1130300318320838FE690E022E0FC01208384E89F
S113031090E0FC0111821082809106019091070106
S1130320A0910801B09109018093C9039093CA0375
S1130330A093CB03B093CC038FE590E02FE530E09E
S1130340F90120812068FC0120830000DF91CF9116
S11303500895CF93DF93CDB7DEB781E08093C803D0
S11303600000DF91CF9108951F920F9200905F00DB
S11303700F92112400905B000F922F933F934F93A1
S11303805F936F937F938F939F93AF93BF93EF93F9
S1130390FF93CF93DF93CDB7DEB78091C9039091DC
S11303A0CA03A091CB03B091CC030197A109B10971
S11303B08093C9039093CA03A093CB03B093CC0357
S11303C08091C9039091CA03A091CB03B091CC034F
S11303D0892B8A2B8B2B89F4BCDF809106019091A9
S11303E00701A0910801B09109018093C90390937A
S11303F0CA03A093CB03B093CC030000DF91CF9149
S1130400FF91EF91BF91AF919F918F917F916F91E8
S11304105F914F913F912F910F9000925B000F904D
S113042000925F000F901F901895CF93DF9300D038
S113043000D0CDB7DEB769837A838B839C838981AF
S11304409A81AB81BC818093060190930701A093AC
S11304500801B09309018091060190910701A091D0
S11304600801B09109018093C9039093CA03A09332
S1130470CB03B093CC0300000F900F900F900F901C
S1130480DF91CF910895CF93DF93CDB7DEB78CE79B
S113049090E020E4FC0120838AE790E027E8FC0157
S11304A020830000DF91CF910895CF93DF931F92B3
S11304B0CDB7DEB789838981877089838CE790E023
S11304C02CE730E0F9012081322F387F2981232B5A
S11304D0FC0120838AE790E02AE730E0F9012081DB
S11304E02064FC01208300008AE790E0FC01808105
S11304F0882F90E080749927892BB1F788E790E0E2
S1130500FC01808191810F90DF91CF910895CF9369
S1130510DF9300D000D000D0CDB7DEB79C838B83AF
S11305207E836D8386E090E00E947B199A838983A1
S113053089819A812B813C81FC01318320838981CB
S11305409A812D813E81FC013383228389819A81A2
S1130550FC011582148289819A8126960FB6F8943B
S1130560DEBF0FBECDBFDF91CF910895CF93DF9350
S113057000D0CDB7DEB784E090E00E947B199A8367
S1130580898389819A81FC011382128289819A81EB
S1130590FC012281338189819A81FC01318320838A
S11305A089819A810F900F90DF91CF910895CF9315
S11305B0DF93CDB7DEB728970FB6F894DEBF0FBE32
S11305C0CDBF9C838B837E836D8358874F832F811C
S11305D038858D819E81B9019ADF9A8389838B81C5
S11305E09C81FC0182819381892B91F48B819C8174
S11305F029813A81FC01338322838B819C81FC0114
S1130600228133818B819C81FC013183208311C041
S11306108B819C81FC018281938129813A81FC0137
S1130620358324838B819C8129813A81FC01338326
S1130630228328960FB6F894DEBF0FBECDBFDF919C
S1130640CF910895CF93DF9300D000D0CDB7DEB71C
S11306509C838B838B819C81FC0180819181892B7C
S113066019F480E090E022C08B819C81FC018081A0
S113067091819A8389838B819C81FC018081918102
S1130680FC01248135818B819C81FC013183208391
S11306908B819C81FC0180819181892B29F48B8140
S11306A09C81FC011382128289819A810F900F90A0
S11306B00F900F90DF91CF910895CF93DF9300D0E7
S11306C000D000D0CDB7DEB79E838D838D819E810F
S11306D0FC01808191819A8389831C821B820CC0D6
S11306E08B819C8101969C838B8389819A81FC01F7
S11306F0848195819A83898389819A81892B81F761
S11307008B819C8126960FB6F894DEBF0FBECDBFB9
S1130710DF91CF910895CF93DF93CDB7DEB72C97B8
S11307200FB6F894DEBF0FBECDBF6D837E838F837B
S1130730988729873A874B875C878D819E81AF8113
S1130740B88529853A854B855C85BC01CD010E941D
S11307505019DC01CB0189839A83AB83BC838981E3
S11307609A81AB81BC81892B8A2B8B2B29F48985B7
S11307709A85AB85BC8511C089859A85AB85BC8576
S11307808D839E83AF83B88789819A81AB81BC8135
S113079089879A87AB87BC87D0CFBC01CD012C96C3
S11307A00FB6F894DEBF0FBECDBFDF91CF91089591
S11307B0CF93DF93CDB7DEB728970FB6F894DEBF9B
S11307C00FBECDBF9E838D8378876F838D819E817D
S11307D0FC01808191819A83898381E090E09C83EC
S11307E08B8321C089819A819C01990F440B550BFD
S11307F08B819C81880F991F6D817E81860F971F45
S1130800FC0180819181092E000CAA0BBB0BBC0159
S1130810CD0181DFDC01CB019A8389838B819C81AB
S113082001969C838B832B813C818F81988528172B
S11308303907C4F289819A81092E000CAA0BBB0BDB
S1130840BC01CD0128960FB6F894DEBF0FBECDBF14
S1130850DF91CF910895CF93DF93CDB7DEB781E0D9
S11308601AD00000DF91CF910895CF93DF93CDB7D5
S1130870DEB784E690E0ACD088E30DD086E00BD000
S11308808FE009D081E007D08AE090E0A1D0000099
S1130890DF91CF910895CF93DF931F92CDB7DEB749
S11308A089838BE290E02BE230E0F90120812F7BF9
S11308B0FC01208388E290E02981FC0120838BE203
S11308C090E02BE230E0F90120812068FC012083D4
S11308D000008BE290E02BE230E0F90120812F77D9
S11308E0FC01208382E090E073D000000F90DF9140
S11308F0CF910895CF93DF931F92CDB7DEB789834D
S11309008BE290E02BE230E0F90120812064FC01CD
S1130910208388E290E02981FC0120838BE290E02F
S11309202BE230E0F90120812068FC0120830000E3
S11309308BE290E02BE230E0F90120812F77FC017B
S1130940208381E090E044D000000F90DF91CF91AC
S11309500895CF93DF9300D000D0CDB7DEB78A835C
S11309607C836B8378DF8A8189830FC0898191E0DE
S1130970980F998318D08B819C819C012F5F3F4FE6
S11309803C832B83FC018081B5DF8B819C81FC013E
S11309908081882359F700000F900F900F900F90DB
S11309A0DF91CF910895CF93DF931F92CDB7DEB738
S11309B089838981813120F4898181586CDF03C066
S11309C08981815568DF00000F90DF91CF910895F0
S11309D0CF93DF9300D000D000D0CDB7DEB79E8395
S11309E08D831A82198213C01C821B8206C00000E8
S11309F08B819C8101969C838B838B819C81873026
S1130A009340ACF389819A8101969A8389832981E1
S1130A103A818D819E812817390734F30000269688
S1130A200FB6F894DEBF0FBECDBFDF91CF9108950E
S1130A300F931F93CF93DF9300D0CDB7DEB78A8394
S1130A40198236C00BE210E08BE290E0FC01808159
S1130A5040E062E046DBF80180838A81882364F405
S1130A600BE210E08BE290E0FC01808141E060E069
S1130A7038DBF80180830BC00BE210E08BE290E0DE
S1130A80FC01808140E060E02CDBF80180830BE214
S1130A9010E08BE290E0FC01808141E062E021DB28
S1130AA0F801808389818F5F89838A81880F8A8393
S1130AB08981883038F200000F900F90DF91CF9138
S1130AC01F910F9108950F931F93CF93DF931F925C
S1130AD0CDB7DEB789830BE210E08BE290E0FC0136
S1130AE0808140E061E0FDDAF80180838981882F0C
S1130AF090E0865F9E4FFC0180819ADF0BE210E05C
S1130B008BE290E0FC01808141E061E0EADAF801E7
S1130B10808300000F90DF91CF911F910F91089572
S1130B20CF93DF93CDB7DEB780E0CDDF0000DF9158
S1130B30CF9108951F93CF93DF93CDB7DEB782E2B1
S1130B4090E0FC01808141E060E0CBDA182F82E282
S1130B5090E0FC01808141E061E0C3DA182B82E27D
S1130B6090E0FC01808141E062E0BBDA812B482FF8
S1130B7050E08AE290E02AE230E0F9012081322F4D
S1130B80242F232BFC01208388E09DDFC9DF000094
S1130B90DF91CF911F9108950F931F93CF93DF930C
S1130BA000D000D0CDB7DEB769837A838B839C8372
S1130BB08091CD039091CE03A091CF03B091D00347
S1130BC09C01AD0169817A818B819C810E94861789
S1130BD0882309F477C020E030E0A90169817A8193
S1130BE08B819C810E948617882351F481E990E0CF
S1130BF021E930E0F90120812870FC01208309C03B
S1130C0081E990E021E930E0F90120812360FC01D1
S1130C10208328E539E344E75FE369817A818B81A6
S1130C209C810E948617882344F488E990E02FEF82
S1130C303FEFFC013183208334C020E034E244EFF1
S1130C4056E469817A818B819C810E94D51818169B
S1130C5034F488E990E0FC011182108222C008E992
S1130C6010E020E030E040E053E469817A818B8138
S1130C709C810E94D918DC01CB019C01AD0160E08C
S1130C8074E284EF9AE40E948A17DC01CB01BC0170
S1130C90CD010E94F217DC01CB010197F801918389
S1130CA0808384E990E0FC011182108289819A8119
S1130CB0AB81BC818093CD039093CE03A093CF03EB
S1130CC0B093D00300000F900F900F900F90DF911E
S1130CD0CF911F910F910895CF93DF93CDB7DEB7D6
S1130CE080E990E020E4FC01208381E990E02BE09E
S1130CF0FC01208360E070E0CB014EDF0000DF9157
S1130D00CF910895CF93DF93CDB7DEB784E090E021
S1130D1090931D0480931C0429DC90931B048093FE
S1130D201A0480911A0490911B0441E050E061E0A0
S1130D3070E03DDC81E090E090931F0480931E04FA
S1130D4081E090E0909321048093200481E090E07E
S1130D509093230480932204109225041092240477
S1130D600000DF91CF910895CF93DF9300D000D09E
S1130D7000D0CDB7DEB79C838B837E836D838B815C
S1130D809C81FC0180819181817099279A83898358
S1130D908B819C81FC01808191819C0136952795F2
S1130DA08B819C81FC013183208389819A81019705
S1130DB071F48B819C81FC01208131818D819E8124
S1130DC0282739278B819C81FC01318320838B81E7
S1130DD09C81FC018081918126960FB6F894DEBF38
S1130DE00FBECDBFDF91CF910895CF93DF93CDB7E1
S1130DF0DEB789E897E690933504809334048EED4A
S1130E009CEB90934F0480934E040000DF91CF91AC
S1130E1008950F931F93CF93DF93CDB7DEB76CE59F
S1130E2073ED84E394E0A0DF6CE573ED84E394E078
S1130E309BDF8C0163EE72EC8EE494E095DF8027F7
S1130E409127DF91CF911F910F910895CF93DF9355
S1130E50CDB7DEB78091240490912504282F80918A
S1130E60220490912304622FBDD90000DF91CF9119
S1130E700895CF93DF93CDB7DEB72E970FB6F894CE
S1130E80DEBF0FBECDBFD9D91A8219820EC09E0112
S1130E90295F3F4F89819A81820F931FFC01108241
S1130EA089819A8101969A83898389819A81089795
S1130EB074F380911A0490911B04FC018081918148
S1130EC09C838B832AC08B819C81FC0180819181CE
S1130ED001972B813C81F901208131812150310915
S1130EE0AE01495F5F4F240F351FF9012081422F66
S1130EF02B813C81F90122813381242B422F9E01D5
S1130F00295F3F4F820F931FFC0140838B819C819B
S1130F10FC01848195819C838B838B819C81892BAB
S1130F2091F694DF80911A0490911B04FC01808156
S1130F3091819E838D835EC020912204309123048D
S1130F408D819E81FC018081918128173907B9F533
S1130F508D819E81FC018081918101972D813E814B
S1130F60F9012081318121503109AE01495F5F4F80
S1130F70240F351FF9012081422F20912404309140
S1130F802504242B422F9E01295F3F4F820F931F7C
S1130F90FC0140838D819E81FC01808191810197B8
S1130FA09E01295F3F4F820F931FFC0120818D8199
S1130FB09E81FC0180819181622F14D914C08D819E
S1130FC09E81FC018081918101979E01295F3F4FA1
S1130FD0820F931FFC0120818D819E81FC01808101
S1130FE09181622FFFD88D819E81FC01848195813E
S1130FF09E838D838D819E81892B09F09DCF000076
S11310002E960FB6F894DEBF0FBECDBFDF91CF9101
S11310100895CF93DF93CDB7DEB780E046DA893504
S1131020924040F481E041DA853F914018F481E038
S113103090E02BC080E039DA8935924040F481E0B9
S113104034DA8835924018F082E090E01EC080E0E7
S11310502CDA853F914040F481E027DA89359240CB
S113106018F483E090E011C080E01FDA88359240E4
S113107040F081E01ADA8935924018F484E090E077
S113108004C080911C0490911D04DF91CF910895B8
S1131090CF93DF93CDB7DEB78091200490912104E4
S11310A0029764F420911C0430911D0481E090E0C7
S11310B02817390719F481E090E039C080912004A1
S11310C0909121048038910564F020911C043091A2
S11310D01D0482E090E02817390719F481E090E0BC
S11310E026C080911E0490911F04029764F42091FD
S11310F01C0430911D0483E090E02817390719F48B
S113110081E090E014C080911E0490911F04089720
S113111064F020911C0430911D0484E090E02817B1
S1131120390719F481E090E002C080E090E0DF919B
S1131130CF910895CF93DF9300D0CDB7DEB78091E0
S11311401A0490911B04B9DA02971CF480E090E031
S11311503AC080911A0490911B04FC018081918112
S11311609A83898322C089819A81FC0120813181FB
S113117080911E0490911F042817390779F48981FE
S11311809A81FC0122813381809120049091210471
S11311902817390719F481E090E015C089819A81F4
S11311A0FC01848195819A83898380911A049091AA
S11311B01B04FC012281338189819A812817390714
S11311C091F680E090E00F900F90DF91CF91089519
S11311D0CF93DF93CDB7DEB720912204309123045F
S11311E080911E0490911F042817390771F42091EF
S11311F0240430912504809120049091210428171F
S1131200390719F481E090E002C080E090E0DF91BA
S1131210CF910895EF92FF920F931F93CF93DF9393
S1131220CDB7DEB7CC51D1400FB6F894DEBF0FBEB8
S1131230CDBF0DB71EB78DB79EB77C0180911A0440
S113124090911B043ADA9C018FE390E0821B930B8C
S11312509A8B898B89899A899C01215031093C8B0D
S11312602B8B2DB73EB7281B390B0FB6F8943EBF16
S11312700FBE2DBF8DB79EB701969E8B8D8B89892E
S11312809A899C0121503109388F2F8BEDB7FEB715
S1131290E81BF90B0FB6F894FEBF0FBEEDBF8DB778
S11312A09EB701969A8F898F1A82198281E090E005
S11312B09C838B8346C081E090E09E838D8335C000
S11312C089819A8180349105ACF54D819E01235E1C
S11312D03F4F89819A81820F931FFC0140834B8188
S11312E09E01235A3F4F89819A81820F931FFC01EB
S11312F040839E0123563F4F89819A81820F931F19
S1131300FC0110829E0123523F4F89819A81820FF2
S1131310931FFC01108289819A8101969A838983A3
S11313208D819E8101969E838D838D819E810997F7
S11313303CF201C000008B819C81880F991F9C8323
S11313408B838B819C818F3F910509F00CF4B3CF83
S113135080911A0490911B04FC01808191819887EB
S11313608F834FC01A8619863FC09E0123563F4F74
S113137089859A85820F931FFC018081282F30E094
S11313808F819885FC01808191812817390739F56F
S11313909E0123523F4F89859A85820F931FFC013A
S11313A08081282F30E08F819885FC018281938190
S11313B028173907A1F49E0123563F4F89859A8542
S11313C0820F931F21E0FC0120839E0123523F4F93
S11313D089859A85820F931F21E0FC0120838985EA
S11313E09A8501969A87898789859A85803491059B
S11313F00CF4BBCF8F819885FC01848195819887FB
S11314008F838F819885892B09F0ACCF1C861B862E
S11314101E861D86188A1F8655C09E0123563F4F7F
S11314208F859889820F931FFC0180818823E9F4BA
S11314302B853C8589899A8928173907B0F49E0140
S1131440235E3F4F8B859C85820F931FFC01408157
S11314502D893E898B859C85820F931FFC014083D7
S11314608B859C8501969C878B879E0123523F4FD9
S11314708F859889820F931FFC0180818823E9F46A
S11314802D853E8589899A8928173907B0F49E01EC
S1131490235A3F4F8D859E85820F931FFC01408107
S11314A0298D3A8D8D859E85820F931FFC01408383
S11314B08D859E8501969E878D878F859889019657
S11314C0988B8F878F859889803491050CF4A5CFEC
S11314D0A0DC29893A89B9010E943C199C8F8B8F21
S11314E02D893E898B8D9C8D820F931FFC018081F9
S11314F0882F90E09093230480932204298D3A8DC1
S11315008B8D9C8D820F931FFC018081882F90E02E
S113151090932504809324040FB6F894FEBE0FBE66
S1131520EDBE00000FB6F8941EBF0FBE0DBFC45E23
S1131530DE4F0FB6F894DEBF0FBECDBFDF91CF9163
S11315401F910F91FF90EF900895CF93DF93CDB744
S1131550DEB728970FB6F894DEBF0FBECDBF9887CD
S11315608F8380E290E0FC01808180958C738B8373
S11315708F819885092E000CAA0BBB0B40E050E02C
S11315802AE030E0841B950B2817390708F484C33C
S11315908A5B9F4FFC010C9472191092D203109233
S11315A0D1031092D4031092D3031092D603109255
S11315B0D50310925304109252041092D80310923F
S11315C0D703109249041092480480912E049091FC
S11315D02F04A0913004B091310480934A04909375
S11315E04B04A0934C04B0934D041092DA03109270
S11315F0D903109251041092500492DA81E063DA14
S11316000E941D01109247041092460482E090E06B
S113161098878F8344C38B818430C1F48091D10334
S11316209091D20301969093D2038093D103809139
S1131630D1039091D203039720F01092D203109219
S1131640D10382E090E098878F8329C38B8188300F
S113165009F58091D1039091D203019729F484E094
S113166090E098878F831BC38091D1039091D2031C
S1131670029759F481E090E09093D6038093D503C8
S113168082E090E098878F830AC381E090E0988796
S11316908F8305C381E090E098878F8300C3809196
S11316A0D1039091D2030297D1F48091D503909104
S11316B0D603892BA1F0CFD88091D3039091D40382
S11316C0880F991F815F9E4FFC0180819181BC012D
S11316D081E03FD983E090E098878F83E0C2BBD854
S11316E08091D1039091D203880F991F875E9E4FFA
S11316F0FC0180819181BC0181E02BD981E090E0E3
S113170098878F83CCC28B818430C1F48091D303BA
S11317109091D40301969093D4038093D303809142
S1131720D3039091D403059720F01092D403109220
S1131730D30382E090E098878F83B1C28B81883095
S113174009F051C18091D3039091D403892B09F0FE
S11317504AC084E690E0A0E0B0E080933A0490931D
S11317603B04A0933C04B0933D0484E690E0A0E0E5
S1131770B0E08093400490934104A0934204B0935A
S1131780430484E690E0A0E0B0E0809326049093C4
S11317902704A0932804B093290484E690E0A0E0F1
S11317A0B0E08093360490933704A0933804B09348
S11317B0390482E390E0A0E0B0E080932A0490939F
S11317C02B04A0932C04B0932D041092D6031092F2
S11317D0D503A6D981E077D981E090E090934704BE
S11317E080934604F7C08091D3039091D40301976A
S11317F009F04AC084E690E0A0E0B0E080933A04A7
S113180090933B04A0933C04B0933D048BE490E09C
S1131810A0E0B0E08093400490934104A09342047C
S1131820B09343048BE490E0A0E0B0E080932604FE
S113183090932704A0932804B09329048BE490E0A8
S1131840A0E0B0E08093360490933704A09338046A
S1131850B093390482E390E0A0E0B0E080932A04DE
S113186090932B04A0932C04B0932D041092D603D0
S11318701092D50355D982E026D981E090E0909367
S1131880470480934604A6C08091D3039091D40367
S1131890029709F04AC084E690E0A0E0B0E08093AB
S11318A03A0490933B04A0933C04B0933D0482E338
S11318B090E0A0E0B0E08093400490934104A093B2
S11318C04204B093430482E390E0A0E0B0E080934C
S11318D0260490932704A0932804B093290482E358
S11318E090E0A0E0B0E08093360490933704A09396
S11318F03804B093390482E390E0A0E0B0E0809330
S11319002A0490932B04A0932C04B0932D041092DA
S1131910D6031092D50304D983E0D5D881E090E0B2
S1131920909347048093460455C08091D3039091CB
S1131930D403039709F04AC084E690E0A0E0B0E045
S113194080933A0490933B04A0933C04B0933D04E9
S113195089E190E0A0E0B0E08093400490934104DA
S1131960A0934204B093430489E190E0A0E0B0E086
S11319708093260490932704A0932804B093290409
S113198089E190E0A0E0B0E08093360490933704BE
S1131990A0933804B093390482E390E0A0E0B0E06F
S11319A080932A0490932B04A0932C04B0932D04C9
S11319B01092D6031092D503B3D884E084D881E082
S11319C090E0909347048093460404C01092D60399
S11319D01092D5031092D4031092D30382E090E0C6
S11319E098878F835CC183E090E098878F8357C189
S11319F08B818823F1F48091480490914904892BC8
S1131A00C1F40E942B046BE373E081E00E94A904FB
S1131A1080911F01909120010E94D30481E090E005
S1131A20909353048093520486E090E098878F83C8
S1131A302BC08B81882389F48091480490914904B8
S1131A40892B59F08091D9039091DA03892B29F4D9
S1131A5087E090E098878F8317C08B81882379F47F
S1131A608091D9039091DA03892B49F010924904AB
S1131A701092480486E090E098878F8305C084E044
S1131A8090E098878F830BC10AC18B818830A1F4C1
S1131A9081E090E090934904809348041092DA0323
S1131AA01092D90363E473E081E00E94A90484E006
S1131AB090E098878F83F3C08B81803129F48AE08A
S1131AC090E098878F83EBC08B81803279F41092F9
S1131AD05304109252048FE390E09093D8038093C0
S1131AE0D70389E090E098878F83D9C0809132042E
S1131AF090913304892B71F08091D7039091D8038E
S1131B0001969093D8038093D70386E090E098875A
S1131B108F83C5C08091440490914504892B49F07A
S1131B20109253041092520489E090E098878F83B6
S1131B30B6C085E090E098878F83B1C088E090E0DC
S1131B409093200180931F0180911F0190912001A7
S1131B500E94D3048091D7039091D8030A979CF1F3
S1131B608091D7039091D8039E012B5F3F4F4AE0A9
S1131B7050E0B9010E949C1A1A8219821FC09E016A
S1131B802B5F3F4F89819A81820F931FFC018081D3
S1131B900E947A0480911F019091200101969093F4
S1131BA0200180931F0180911F01909120010E94C8
S1131BB0D30489819A8101969A83898389819A8140
S1131BC00297E8F20FC08091D7039091D8039E0149
S1131BD02C5F3F4F4AE050E0B9010E949C1A8C816F
S1131BE00E947A048091D7039091D803CF972CF068
S1131BF089E090E098878F8352C085E090E09887D1
S1131C008F834DC08B81883091F40E942B046BE349
S1131C1073E081E00E94A90481E090E09093DA03EC
S1131C208093D90384E090E098878F8338C08B81B8
S1131C30803129F48AE090E098878F8330C087E070
S1131C4090E098878F832BC08B81803129F088E0C6
S1131C5090E098878F8323C018861F8220C08091CC
S1131C60D7039091D803CF9734F06AE473E081E00E
S1131C700E94A90405C063E673E081E00E94A90400
S1131C8088E090E098878F830AC0109253041092E2
S1131C90520418861F8203C018861F8200008F8199
S1131CA0988528960FB6F894DEBF0FBECDBFDF919E
S1131CB0CF910895CF93DF9300D0CDB7DEB79A8349
S1131CC0898389819A8181309105B1F082309105AF
S1131CD009F48EC0892B09F0CEC1809152049091F1
S1131CE05304892B31F00ED881E090E09A838983E4
S1131CF0C6C11A821982C3C18091520490915304BF
S1131D00892B09F467C08091480490914904892B78
S1131D1009F060C07ED99C0181E090E02817390762
S1131D2081F420911C0430911D0482E090E0281776
S1131D30390739F081E090E090931D0480931C04EE
S1131D4044C067D99C0182E090E02817390781F4E8
S1131D5020911C0430911D0481E090E0281739077C
S1131D6039F082E090E090931D0480931C042DC010
S1131D7050D99C0183E090E02817390781F4209121
S1131D801C0430911D0484E090E02817390739F0D1
S1131D9083E090E090931D0480931C0416C039D90D
S1131DA09C0184E090E02817390779F420911C0401
S1131DB030911D0483E090E02817390731F084E066
S1131DC090E090931D0480931C0482E090E09A8339
S1131DD0898304C081E090E09A83898380915204CE
S1131DE090915304892B09F049C11A82198247C181
S1131DF04FD9892B09F0A3C020911C0430911D04F4
S1131E0081E090E02817390701F580912004909132
S1131E1021049595879590932104809320048091C3
S1131E201A0490911B040E942203409120045091B3
S1131E30210420911E0430911F0480911A04909172
S1131E401B04B9010E94D70211C120911C043091D6
S1131E501D0482E090E02817390701F580912004E1
S1131E6090912104880F991F90932104809320045A
S1131E7080911A0490911B040E9422034091200433
S1131E805091210420911E0430911F0480911A0462
S1131E9090911B04B9010E94D702E8C020911C0450
S1131EA030911D0483E090E028173907F9F48091FC
S1131EB01E0490911F04019790931F0480931E04A5
S1131EC080911A0490911B040E94220340912004E3
S1131ED05091210420911E0430911F0480911A0412
S1131EE090911B04B9010E94D702C0C020911C0428
S1131EF030911D0484E090E02817390709F0B6C03A
S1131F0080911E0490911F04019690931F04809366
S1131F101E0480911A0490911B040E942203409194
S1131F2020045091210420911E0430911F048091BB
S1131F301A0490911B04B9010E94D70297C0A8D833
S1131F40892B09F493C020911C0430911D0481E075
S1131F5090E028173907E1F480E890E09093210499
S1131F608093200480911A0490911B040E94220300
S1131F70409120045091210420911E0430911F04AB
S1131F8080911A0490911B04B9010E94D7026EC07B
S1131F9020911C0430911D0482E090E02817390739
S1131FA0E1F481E090E090932104809320048091F7
S1131FB01A0490911B040E94220340912004509122
S1131FC0210420911E0430911F0480911A049091E1
S1131FD01B04B9010E94D70249C020911C0430910E
S1131FE01D0483E090E028173907E1F488E090E0CD
S1131FF090931F0480931E0480911A0490911B04F3
S11320000E942203409120045091210420911E0437
S113201030911F0480911A0490911B04B9010E940D
S1132020D70224C020911C0430911D0484E090E068
S113203028173907D9F481E090E090931F04809326
S11320401E0480911A0490911B040E942203409163
S113205020045091210420911E0430911F0480918A
S11320601A0490911B04B9010E94D70281E090E008
S11320709A83898304C01A82198201C0000089816D
S11320809A810F900F90DF91CF910895CF93DF93B2
S113209000D0CDB7DEB79A83898389819A8100976E
S11320A019F00197A1F03AC010924504109244042B
S11320B0109233041092320480915204909153048C
S11320C0892B79F181E090E09A8389832AC08091F9
S11320D0520490915304892BA1F08091480490916B
S11320E04904892B71F426D8892B31F081E090E0E2
S11320F0909345048093440481E090E09A8389831B
S113210004C081E090E09A83898380915204909185
S11321105304892B41F41A82198206C01A82198247
S113212003C0000001C0000089819A810F900F90C4
S1132130DF91CF910895CF93DF9300D0CDB7DEB771
S11321409A83898389819A8181309105B1F08230A3
S1132150910509F441C0892B09F054C180915204BE
S113216090915304892B31F055D881E090E09A8303
S113217089834CC11A82198249C180915204909179
S11321805304892BD9F08091480490914904892BF8
S1132190A9F41ED8892B59F081E090E09093330480
S11321A08093320482E090E09A83898304C081E0C2
S11321B090E09A8389830E94390704C081E090E00B
S11321C09A8389838091520490915304892B09F056
S11321D01CC11A82198219C10E944808892B09F06E
S11321E08BC020911C0430911D0481E090E02817DD
S11321F03907D1F480912004909121049595879515
S11322009093210480932004409120045091210450
S113221020911E0430911F0480911A0490911B0494
S1132220B9010E94D702E3C020911C0430911D041F
S113223082E090E028173907D1F48091200490912E
S11322402104880F991F90932104809320044091C6
S113225020045091210420911E0430911F04809188
S11322601A0490911B04B9010E94D702C0C02091A6
S11322701C0430911D0483E090E028173907C9F449
S113228080911E0490911F04019790931F048093E2
S11322901E04409120045091210420911E04309189
S11322A01F0480911A0490911B04B9010E94D70263
S11322B09EC020911C0430911D0484E090E02817F6
S11322C0390709F094C080911E0490911F0401966F
S11322D090931F0480931E04409120045091210484
S11322E020911E0430911F0480911A0490911B04C4
S11322F0B9010E94D7027BC020911C0430911D04B7
S113230081E090E028173907B1F480E890E09093D9
S113231021048093200440912004509121042091B1
S11323201E0430911F0480911A0490911B04B9017A
S11323300E94D7025CC020911C0430911D0482E0ED
S113234090E028173907B1F481E090E090932104DC
S113235080932004409120045091210420911E0474
S113236030911F0480911A0490911B04B9010E94BA
S1132370D7023DC020911C0430911D0483E090E0FD
S113238028173907B1F488E090E090931F048093F4
S11323901E04409120045091210420911E04309188
S11323A01F0480911A0490911B04B9010E94D70262
S11323B01EC020911C0430911D0484E090E0281775
S11323C03907A9F481E090E090931F0480931E04E0
S11323D0409120045091210420911E0430911F0447
S11323E080911A0490911B04B9010E94D7021092A3
S11323F03304109232040E940A0981E090E09A8327
S1132400898304C01A82198201C0000089819A81DB
S11324100F900F90DF91CF910895CF93DF9300D069
S11324201F92CDB7DEB79B838A8380E290E0FC01E4
S113243080818095847089838A819B818130910514
S113244009F453C0823091051CF4892B49F04DC125
S11324508230910509F4E1C0039709F400C145C134
S113246060E070E0CB010E94CC051092DC03109276
S1132470DB031092DE031092DD031092E00310924E
S1132480DF031092E2031092E103809152049091D1
S11324905304892B39F18091DF039091E003880F75
S11324A0991F8F5D9E4FFC01208131818091DD0356
S11324B09091DE03880F991F820F931FFC01808186
S11324C09181CC01A0E0B0E0BC01CD01BCD5DC0120
S11324D0CB01BC01CD010E94CC0581E090E09B833F
S11324E08A8307C11B821A8204C180914804909197
S11324F04904892B09F07EC08981882359F081E041
S113250090E09093E2038093E10382E090E09B8368
S11325108A83EFC08091DF039091E003880F991FB5
S1132520895D9E4FFC01208131818091DD03909172
S1132530DE03880F991F820F931FFC018081918114
S11325402091DB033091DC038217930769F48091B7
S1132550DD039091DE0301969093DE038093DD0307
S11325601092DC031092DB038091DF039091E0036F
S1132570880F991F835D9E4FFC01208131818091DA
S1132580DD039091DE038217930720F01092DE039F
S11325901092DD038091DF039091E003880F991F6F
S11325A08F5D9E4FFC01208131818091DD039091EC
S11325B0DE03880F991F820F931FFC018081918194
S11325C0CC01A0E0B0E0BC01CD013DD5DC01CB01E4
S11325D0BC01CD010E94CC058091DB039091DC030A
S11325E0C2969093DC038093DB0381E090E09B83AD
S11325F08A8309C060E070E0CB010E94CC0581E0D1
S113260090E09B838A838091520490915304892B98
S113261009F06EC01B821A826BC08981882359F429
S11326208091E1039091E203892B29F083E090E00B
S11326309B838A8313C08981882359F48091E103A1
S11326409091E203892B29F481E090E09B838A83B3
S113265005C082E090E09B838A834BC04AC080918E
S1132660DF039091E00301969093E0038093DF03EE
S11326708091DF039091E003039720F01092E00330
S11326801092DF031092DE031092DD031092DC033C
S11326901092DB038091DF039091E003880F991F70
S11326A08F5D9E4FFC01208131818091DD039091EB
S11326B0DE03880F991F820F931FFC018081918193
S11326C0CC01A0E0B0E0BC01CD01BDD4DC01CB0164
S11326D0BC01CD010E94CC051092E2031092E103EB
S11326E081E090E09B838A8304C01B821A8201C02C
S11326F000008A819B810F900F900F90DF91CF9102
S113270008950F931F93CF93DF93CDB7DEB7EA9766
S11327100FB6F894DEBF0FBECDBF81E290E0FC019E
S1132720108282E290E02FEFFC01208384E290E0AB
S11327302FEFFC01208385E290E0FC01108287E208
S113274090E02FEFFC01208388E290E0FC011082EE
S11327508AE290E02FEFFC0120838BE290E0FC0101
S113276010820E9433010E9443020E9435040E9499
S1132770F5060E949A0584E690E0A0E0B0E080931C
S11327803A0490933B04A0933C04B0933D0484E644
S113279090E0A0E0B0E08093400490934104A093C3
S11327A04204B093430484E690E0A0E0B0E0809358
S11327B0260490932704A0932804B093290484E664
S11327C090E0A0E0B0E08093360490933704A093A7
S11327D03804B093390482E390E0A0E0B0E0809341
S11327E02A0490932B04A0932C04B0932D0481E02D
S11327F090E0A0E0B0E08B839C83AD83BE838091A6
S11328003A0490913B04A0913C04B0913D049E8F06
S11328108D8F8091400490914104A0914204B09125
S1132820430498A38F8F8091260490912704A0914C
S11328302804B09129049AA389A380913604909125
S11328403704A0913804B09139049CA38BA38091E0
S11328502A0490912B04A0912C04B0912D049EA3E2
S11328608DA3CE014D9665E070E00E94D803DC0193
S1132870CB018B839C83AD83BE838B819C81AD8193
S1132880BE8180934A0490934B04A0934C04B0936C
S11328904D0480913A0490913B04A0913C04B09182
S11328A03D0420914A0430914B0440914C045091D2
S11328B04D04BC01CD01F4D4DA01C9018F8398879A
S11328C0A987BA878091400490914104A091420461
S11328D0B091430420914A0430914B0440914C043C
S11328E050914D04BC01CD01DBD4DA01C9018B87C1
S11328F09C87AD87BE878091260490912704A09180
S11329002804B091290420914A0430914B04409149
S11329104C0450914D04BC01CD01C2D4DA01C9016B
S11329208F87988BA98BBA8B80913604909137044A
S1132930A0913804B091390420914A0430914B0499
S113294040914C0450914D04BC01CD01A9D4DA014D
S1132950C9018B8B9C8BAD8BBE8B80912A0490918B
S11329602B04A0912C04B0912D0420914A043091A1
S11329704B0440914C0450914D04BC01CD0190D4C2
S1132980DA01C9018F8B988FA98FBA8F8AE0EDE79E
S1132990F3E0DE01979601900D928A95E1F785E0C8
S11329A090E09C8F8B8F1092E3038F819885A9858B
S11329B0BA858093E4039093E503A093E603B09370
S11329C0E7038F819885A985BA858093E80390935E
S11329D0E903A093EA03B093EB0385EA9AE09093AA
S11329E0ED038093EC031092EE038B859C85AD85FB
S11329F0BE858093EF039093F003A093F103B0930B
S1132A00F2038B859C85AD85BE858093F3039093FB
S1132A10F403A093F503B093F6038AE59EE0909344
S1132A20F8038093F7031092F9038F859889A98995
S1132A30BA898093FA039093FB03A093FC03B093A9
S1132A40FD038F859889A989BA898093FE039093A1
S1132A50FF03A0930004B093010486E490E19093F3
S1132A60030480930204109204048B899C89AD8929
S1132A70BE898093050490930604A0930704B09341
S1132A8008048B899C89AD89BE898093090490933D
S1132A900A04A0930B04B0930C048BE990E1909387
S1132AA00E0480930D0410920F048F89988DA98DC4
S1132AB0BA8D8093100490931104A0931204B093E0
S1132AC013048F89988DA98DBA8D809314049093E3
S1132AD01504A0931604B09317048DE092E190932B
S1132AE01904809318040E946C060E94720180915C
S1132AF04A0490914B04A0914C04B0914D048093EE
S1132B002E0490932F04A0933004B0933104809149
S1132B104A0490914B04A0914C04B0914D04BC0123
S1132B20CD010E9415021A8219828EC089819A8170
S1132B30880F991F9E012F5F3F4F820F931F869628
S1132B40FC0180819181FC0125813681478150857A
S1132B5089819A81880F991FBE016F5F7F4F860F0D
S1132B60971F8696FC0180819181FC01818192816D
S1132B70A381B481281739074A075B0709F045C0C8
S1132B8089819A81880F991F9E012F5F3F4F820F81
S1132B90931F8696FC010081118189819A81880F97
S1132BA0991F9E012F5F3F4F820F931F8696FC0152
S1132BB080819181FC012185328589819A81880FE8
S1132BC0991FAE014F5F5F4F840F951F8696FC01DE
S1132BD080819181FC018081082E000C990BF90100
S1132BE00995F801808389819A81880F991F9E0134
S1132BF02F5F3F4F820F931F8696FC018081918146
S1132C00FC01158216821782108689819A81880FA9
S1132C10991F9E012F5F3F4F820F931F8696FC01E1
S1132C2020813181F90185819681A781B085019642
S1132C30A11DB11DF90185839683A783B08789817E
S1132C409A8101969A83898329813A818B8D9C8DFF
S1132C502817390708F46ACF8091460490914704F5
S1132C60892B09F44BC180913A0490913B04A091C3
S1132C703C04B0913D049AAB89AB8091400490919F
S1132C804104A0914204B09143049CAB8BAB80916E
S1132C90260490912704A0912804B09129049EABA6
S1132CA08DAB8091360490913704A0913804B09193
S1132CB0390498AF8FAB80912A0490912B04A09192
S1132CC02C04B0912D049AAF89AF81E090E0A0E08C
S1132CD0B0E08B839C83AD83BE83CE01C19665E057
S1132CE070E00E94D803DC01CB018B839C83AD830D
S1132CF0BE838B819C81AD81BE8180934A04909375
S1132D004B04A0934C04B0934D0480913A049091E9
S1132D103B04A0913C04B0913D0420914A043091BD
S1132D204B0440914C0450914D04BC01CD01B8D2E8
S1132D30DA01C9018F839887A987BA8780914004F3
S1132D4090914104A0914204B091430420914A041B
S1132D5030914B0440914C0450914D04BC01CD0181
S1132D609FD2DA01C9018B879C87AD87BE8780918A
S1132D70260490912704A0912804B091290420915D
S1132D804A0430914B0440914C0450914D04BC01D1
S1132D90CD0186D2DA01C9018F87988BA98BBA8BB2
S1132DA08091360490913704A0913804B09139048D
S1132DB020914A0430914B0440914C0450914D04AD
S1132DC0BC01CD016DD2DA01C9018B8B9C8BAD8B1B
S1132DD0BE8B80912A0490912B04A0912C04B09175
S1132DE02D0420914A0430914B0440914C0450919D
S1132DF04D04BC01CD0154D2DA01C9018F8B988FE7
S1132E00A98FBA8F8F819885A985BA858093E403A9
S1132E109093E503A093E603B093E7038F8198852D
S1132E20A985BA858093E8039093E903A093EA0304
S1132E30B093EB038B859C85AD85BE858093EF03B2
S1132E409093F003A093F103B093F2038B859C85D8
S1132E50AD85BE858093F3039093F403A093F503AB
S1132E60B093F6038F859889A989BA898093FA0368
S1132E709093FB03A093FC03B093FD038F85988983
S1132E80A989BA898093FE039093FF03A093000459
S1132E90B09301048B899C89AD89BE898093050414
S1132EA090930604A0930704B09308048B899C892B
S1132EB0AD89BE898093090490930A04A0930B04FE
S1132EC0B0930C048F89988DA98DBA8D80931004CA
S1132ED090931104A0931204B09313048F89988DD6
S1132EE0A98DBA8D8093140490931504A0931604AD
S1132EF0B093170410924704109246040000809186
S1132F00C8038823E1F31092C80301CED9D008F492
S1132F1081E008950CD00FC107D140F0FED030F00D
S1132F2021F45F3F19F0F0C0511139C1F3C014D13D
S1132F3098F39923C9F35523B1F3951B550BBB277C
S1132F40AA2762177307840738F09F5F5F4F220F29
S1132F50331F441FAA1FA9F333D00E2E3AF0E0E822
S1132F6030D091505040E695001CCAF729D0FE2F6E
S1132F7027D0660F771F881FBB1F26173707480700
S1132F80AB07B0E809F0BB0B802DBF01FF279358B6
S1132F905F4F2AF09E3F510568F0B6C000C15F3F05
S1132FA0ECF3983EDCF3869577956795B795F7959E
S1132FB09F5FC9F7880F911D9695879597F9089596
S1132FC0E1E0660F771F881FBB1F62177307840732
S1132FD0BA0720F0621B730B840BBA0BEE1F88F741
S1132FE0E095089504D06894B111D9C00895BCD077
S1132FF088F09F5790F0B92F9927B751A0F0D1F0DE
S1133000660F771F881F991F1AF0BA95C9F712C067
S1133010B13081F0C3D0B1E00895C0C0672F782FDC
S11330208827B85F39F0B93FCCF3869577956795D3
S1133030B395D9F73EF490958095709561957F4F3F
S11330408F4F9F4F0895E89409C097FB3EF49095E5
S11330508095709561957F4F8F4F9F4F9923A9F06D
S1133060F92F96E9BB279395F695879577956795FC
S1133070B795F111F8CFFAF4BB0F11F460FF1BC040
S11330806F5F7F4F8F4F9F4F16C0882311F096E9D3
S113309011C0772321F09EE8872F762F05C0662381
S11330A071F096E8862F70E060E02AF09A95660F3A
S11330B0771F881FDAF7880F9695879597F90895F3
S11330C0990F0008550FAA0BE0E8FEEF1616170635
S11330D0E807F907C0F012161306E407F50798F09D
S11330E0621B730B840B950B39F40A2661F0232BB6
S11330F0242B252B21F408950A2609F4A140A69532
S11331008FEF811D811D089597F99F6780E870E016
S113311060E008959FEF80EC089500240A94161649
S1133120170618060906089500240A9412161306B1
S1133130140605060895092E0394000C11F488233F
S113314052F0BB0F40F4BF2B11F460FF04C06F5F5B
S11331507F4F8F4F9F4F089557FD9058440F551F31
S113316059F05F3F71F04795880F97FB991F61F005
S11331709F3F79F087950895121613061406551F7C
S1133180F2CF4695F1DF08C0161617061806991FE8
S1133190F1CF86957105610508940895E894BB27DD
S11331A066277727CB0197F908958ADF08F48FEF14
S11331B008950BD0C0CFB1DF28F0B6DF18F0952307
S11331C009F0A2CFA7CF1124EACFC6DFA0F3959FC1
S11331D0D1F3950F50E0551F629FF001729FBB27FA
S11331E0F00DB11D639FAA27F00DB11DAA1F649FA6
S11331F06627B00DA11D661F829F2227B00DA11D59
S1133200621F739FB00DA11D621F839FA00D611DDE
S1133210221F749F3327A00D611D231F849F600DFF
S1133220211D822F762F6A2F11249F5750408AF038
S1133230E1F088234AF0EE0FFF1FBB1F661F771FC4
S1133240881F91505040A9F79E3F510570F05CCF04
S1133250A6CF5F3FECF3983EDCF3869577956795B0
S1133260B795F795E7959F5FC1F7FE2B880F911DE2
S11332709695879597F90895AA1BBB1B51E107C042
S1133280AA1FBB1FA617B70710F0A61BB70B881FF2
S1133290991F5A95A9F780959095BC01CD01089581
S11332A0A1E21A2EAA1BBB1BFD010DC0AA1FBB1F46
S11332B0EE1FFF1FA217B307E407F50720F0A21BB8
S11332C0B30BE40BF50B661F771F881F991F1A9425
S11332D069F760957095809590959B01AC01BD014F
S11332E0CF010895EE0FFF1F0024001C0BBE0790B2
S11332F0F691E02D09940F931F93CF93DF938230BF
S1133300910510F482E090E0E0915604F0915704A6
S113331020E030E0A0E0B0E0309719F14081518125
S11333200281138148175907C8F08417950769F477
S1133330109731F012960C93129713961C9327C092
S1133340009356041093570422C02115310519F037
S11333504217530718F49A01BD01EF01DF01F80188
S1133360DBCF21153105F9F0281B390B2430310549
S113337080F48A819B816115710521F0FB0193839F
S1133380828304C09093570480935604FE013296BE
S113339044C0FE01E20FF31F81939193225031093F
S11333A0398328833AC02091540430915504232B47
S11333B041F420910201309103013093550420938C
S11333C0540420910001309101012115310541F48B
S11333D02DB73EB74091040150910501241B350BD4
S11333E0E0915404F0915504E217F307A0F42E1B66
S11333F03F0B2817390778F0AC014E5F5F4F241755
S1133400350748F04E0F5F1F509355044093540402
S11334108193919302C0E0E0F0E0CF01DF91CF917E
S11334201F910F910895CF93DF93009709F481C002
S1133430FC01329713821282A0915604B091570472
S1133440109781F420813181820F931F20915404BD
S1133450309155042817390751F5F0935504E0933A
S1133460540467C0ED0120E030E0CE17DF0740F4DC
S11334704A815B819E0141155105F1F0EA01F5CFC6
S1133480D383C28340815181840F951FC817D90704
S113349059F488819981840F951F029691838083C2
S11334A08A819B81938382832115310529F4F093CA
S11334B05704E09356043DC0E901FB83EA83499134
S11334C05991C40FD51FEC17FD0761F480819181D8
S11334D0840F951F0296E9019983888382819381E1
S11334E09B838A83E0E0F0E012968D919C91139780
S11334F0009719F0FD01DC01F7CF8D919C91119794
S11335009D012E5F3F4F820F931F209154043091F1
S113351055042817390769F4309729F41092570491
S11335201092560402C013821282B0935504A093E1
S11335305404DF91CF9108954532510518F4423077
S113354008F004C0FB011082CB010895BB274A3068
S113355031F4992322F4BDE2909581959F4F01C0E7
S1133560BB27FB015527AA27880F991FAA1FA41759
S113357010F0A41B83955051B9F7A05DAA3308F04D
S1133580A95DA193009779F7B111B1931192CB0181
S113359000C0DC01FC01672F71917723E1F73297BA
S11335A004C07C916D9370836291AE17BF07C8F31A
S10935B00895F894FFCF1A
S11335B60000580420000100000000065B4F6687E7
S11335C6038C0393039803A303A803B303BC030860
S11335D600BB02F70173013B02B301330140002231
S11335E600200096003200960032009600320096C3
S11335F600320096003200960032009600320096A1
S11336060032009600320096003200960032009690
S11336160032009600320096003200960032009680
S1133626003200B9000000B9000000B9000000B97A
S1133636000000DC000000DC000000DC000000DC10
S1133646000000CF000000CF000000CF000000CF34
S1133656000000F6000000F6000000DC000000DCBC
S11336660000009001320090013200FA0032002C72
S11336760164009001320090013200C800320090CB
S1133686013200900132009001320090013200FABA
S11336960032002C0164005E0164005E0164005E79
S11336A60164005E0164008A0000008A000000A430
S11336B60000009B0000007B0000007B0000006708
S11336C60000006E000000670000008A0000008A07
S11336D6000000A40000009B0000007B000000B96D
S11336E6000000A40000009B000000960032009633
S11336F600320096003200960032009600320096A0
S1133706003200960032009600320096003200968F
S1133716003200960032009600320096003200967F
S1133726003200960032009600320096003200966F
S1133736003200960032009600320096003200965F
S1133746003200960032009600320096003200964F
S1133756003200960032009600320096003200963F
S11337660032009600320096003200820000008289
S11337760000008200000082000000820000008237
S1133786000000820000008200000067000000675D
S1133796000000670000006700000062000000628D
S11337A60000006200000062000000820000008247
S11337B600000082000000820000008200000082F7
S11337C600000082000000820000009B0000009BB5
S11337D60000009B0000009B000000920000009285
S11337E6000000920000009200000053636F7265AF
S11337F63A200050617573656400436F6E677261A9
S113380674756C6174696F6E7321596F752077696D
S11338166E2100596F75206C6F736521202020205E
S11338262020204E696365207472792100E303EE3B
S113383603F90304040F0445617379004D65646953
S1133846756D004861726400496D706F73736962C7
S11338566C65004261636B00536E616B6520476162
S11338666D65004E65772047616D6500446966663F
S10B38766963756C74790000AC
S9030000FC
